:020000040800F2
:100000000020002075480008314A0008394A0008DD
:1000100000000000000000000000000000000000E0
:10002000000000000000000000000000414A00083D
:10003000494A000800000000514A0008594A0008D7
:10004000C7480008C9480008654A0008CD480008AC
:10005000CF480008794A0008D3480008D54800086E
:10006000D7480008D9480008DB480008DD480008E8
:10007000DF480008E148000800000000E3480008ED
:1000800000000000E548000800000000000000003B
:10009000E748000800000000E9480008EB480008B5
:1000A000ED480008EF480008F1480008F348000850
:1000B000F5480008F7480008F9480008FB48000820
:1000C00010B5064C2378002B07D1054B002B02D02E
:1000D000044800E000BF0123237010BDD0000020C1
:1000E00000000000E095000808B5084B002B03D085
:1000F0000748084900E000BF07480368002B03D009
:10010000064B002B00D0984708BDC04600000000F9
:10011000E0950008D4000020D0000020000000007E
:10012000164B002B00D1144B9D46402292029A1A86
:10013000924600218B460F461348144A121A04F0C7
:1001400074FD0F4B002B00D098470E4B002B00D0B6
:1001500098470020002104000D000D48002802D01F
:100160000C4800E000BF04F031FD2000290003F03E
:1001700031FE04F015FDC0460000080000200020FC
:100180000000000000000000D00000200C02002051
:10019000000000000000000080B582B000AFFB1D31
:1001A00000221A7000F038FC102000F0F1FC002052
:1001B00000F0C2FC112000F0EBFC032000F0BCFCBE
:1001C000442000F0E5FC002000F0B6FC112000F017
:1001D000B3FC452000F0DCFC002000F0ADFCAB20BF
:1001E00000F0AAFC4E2000F0D3FC002000F0A4FC9C
:1001F0004F2000F0CDFC002000F09EFCF02000F02D
:10020000C7FC1F2000F098FC212000F0C1FC032057
:1002100000F092FC2C2000F0BBFCA02000F08CFC35
:100220003C2000F0B5FC642000F086FC322000F099
:10023000AFFCFB1D00221A700BE0FB1D1B78084A67
:10024000D35C181C00F078FCFB1DFA1D12780132FB
:100250001A70FB1D1B78592BEFD9BD4602B080BD2B
:10026000585F000880B582B000AF021CFB1D1A70F9
:10027000242000F08DFCFB1D1B789BB2181C00F0A5
:100280005BFCBD4602B080BD90B583B000AF041CDE
:10029000081C111C1A1CBB1D1C803B1D1880BB1C9C
:1002A00019803B1C1A80442000F072FC3B1D1B8807
:1002B000181C00F041FC3B1C1B88181C00F03CFC87
:1002C000452000F065FCBB1D1B88181C00F034FCA9
:1002D000BB1C1B88181C00F02FFC4E2000F058FCA3
:1002E0003B1D1B88181C00F027FC4F2000F050FC21
:1002F000BB1D1B88181C00F01FFCBD4603B090BD41
:1003000080B500AFAC23181CBD4680BD80B500AFE2
:100310001223181CBD4680BD80B500AF222000F01E
:1003200037FCC42000F008FC202000F031FCBD4662
:1003300080BDC04680B500AF222000F029FC03201C
:1003400000F0FAFB202000F023FCBD4680BDC04633
:1003500090B587B000AF041C081C111C1A1CBB1DF3
:100360001C803B1D1880BB1C19803B1C1A8000237D
:100370003B613B1C0F3300221A703B1C0D330022E3
:100380001A70242000F004FCBB1C1A8807231340B9
:100390009BB2002B00D08EE000237B617AE0BA6A2A
:1003A0007B69D2183B1C0F3312781A703B1C0F3339
:1003B0001B78002B65D03B1C0E3300221A705AE0CC
:1003C00000233B612AE03B1C0F331A7801231340C2
:1003D0000DD03A1C08323B69D3181B780322934393
:1003E000DAB2391C08313B69CB181A700CE03A1CA0
:1003F00008323B69D3181B7803221343DAB2391C45
:1004000008313B69CB181A703B1C0F333A1C0F3272
:10041000127852081A703B6901333B613B69032B28
:10042000D1D93B1C08331B789B01DAB23B1C083343
:100430005B781B01DBB21343DAB23B1C08339B78B9
:100440009B00DBB21343DAB23B1C0833DB78DBB230
:100450001343DAB23B1C0D331A703B1C0D331B786F
:100460009BB2181C00F068FB3B1C0E333A1C0E328A
:10047000127801321A703B1C0E331B78012B9FD966
:1004800005E0FF2000F058FBFF2000F055FB7B69E2
:1004900001337B613B1C1B88BA1C1288920892B204
:1004A0005343002B00DA01335B101A1C7B699A421C
:1004B00000D974E71AE100237B6106E1BA6A7B691F
:1004C000D2183B1C0F3312781A707B695A1CBB1C64
:1004D0001B889B089BB20133002B00DA01335B10B1
:1004E000101C191C04F050FB0B1C00D177E03B1CC6
:1004F0000F331B78002B65D03B1C0E3300221A7083
:100500005AE000233B612AE03B1C0F331A78012399
:1005100013400DD03A1C08323B69D3181B780322D4
:100520009343DAB2391C08313B69CB181A700CE0DE
:100530003A1C08323B69D3181B7803221343DAB202
:10054000391C08313B69CB181A703B1C0F333A1C1D
:100550000F32127852081A703B6901333B613B69D4
:10056000032BD1D93B1C08331B789B01DAB23B1C0F
:1005700008335B781B01DBB21343DAB23B1C083350
:100580009B789B00DBB21343DAB23B1C0833DB7869
:10059000DBB21343DAB23B1C0D331A703B1C0D3334
:1005A0001B789BB2181C00F0C7FA3B1C0E333A1C98
:1005B0000E32127801321A703B1C0E331B78012B5D
:1005C0009FD97FE03B1C0F331B78002B00D079E0D4
:1005D000FF2000F0B1FAFF2000F0AEFA72E07B6974
:1005E0005A1CBB1C1B889B089BB20133002B00DAF2
:1005F00001335B10101C191C04F0C6FA0B1C61D1EE
:100600003B1C0F331B78F02B54D000233B612AE0B6
:100610003B1C0F331A78012313400DD03A1C0832CB
:100620003B69D3181B7803229343DAB2391C083193
:100630003B69CB181A700CE03A1C08323B69D3189E
:100640001B7803221343DAB2391C08313B69CB18FB
:100650001A703B1C0F333A1C0F32127852081A7072
:100660003B6901333B613B69032BD1D93B1C083308
:100670001B789B01DAB23B1C08335B781B01DBB2B1
:100680001343DAB23B1C08339B789B00DBB2134365
:10069000DAB23B1C0833DB78DBB21343DAB23B1C23
:1006A0000D331A703B1C0D331B789BB2181C00F0E5
:1006B00043FA07E03B1C0F331B78F02B02D1FF20DD
:1006C00000F03AFA7B6901337B613B1C1B88BA1C42
:1006D0001288920892B201325343002B00DA0133A0
:1006E0005B101A1C7B699A4200D9E7E6BD4607B049
:1006F00090BDC04680B588B000AF021CFB1D1A70CB
:10070000FB1D1B78002B06D11F4B1F4AD26A02210A
:100710000A43DA6205E01C4B1B4AD26A01210A43F4
:10072000DA62FB1D1A78194B5200D35A1A1C3B1C73
:100730000C331A603B1C0C3301225A603B1C0C33F7
:1007400001229A603B1C0C330222DA60FB1D1A78EE
:100750000F4B9200D2583B1C0C33101C191C00F09C
:1007600057FDFB1D1A780A4B9200D258FB1D1978D1
:10077000064B4900CB5A101C191C002200F0E6FE63
:10078000BD4608B080BDC04600100240B45F0008FE
:100790002000002080B582B000AF021CFB1D1A7043
:1007A000FB1D1A78074B9200D258FB1D1978064B97
:1007B0004900CB5A101C191C00F0E0FEBD4602B0E7
:1007C00080BDC04620000020B45F000880B588B01E
:1007D00000AF0A1CFB1D011C1970BB1D1A70304BA9
:1007E0002F4AD26A01210A43DA62BB1D1B78002B13
:1007F0001FD1FB1D1A782B4B5200D35A1A1C3B1CDD
:100800000C331A603B1C0C3300225A603B1C0C3327
:1008100002229A603B1C0C330222DA60FB1D1A781C
:10082000214B9200D2583B1C0C33101C191C00F0B9
:10083000EFFCBB1D1B78012B2FD1FB1D1A78194B28
:100840005200D35A1A1C3B1C0C331A603B1C0C334D
:1008500000229A603B1C0C33144A5A60FB1D1A7824
:10086000114B9200D2583B1C0C33101C191C00F089
:10087000CFFCFB1D1B780E4AD35CDBB25BB2181CAD
:100880000321002200F090FCFB1D1B78084AD35C7A
:10089000DBB25BB2181C00F09DFCBD4608B080BD09
:1008A00000100240B85F000828000020000021105E
:1008B000BC5F000880B500AF1A4B181C02F0A2FC08
:1008C000031C2DD1174B184A1A60164B8222520076
:1008D0005A60144B00229A60124B1022DA61114BBD
:1008E0000022DA600F4B01225A610E4B02221A617C
:1008F0000C4B00221A620B4B802292009A61094B2A
:1009000000229A62074B0722DA62064B00225A62E3
:10091000044B181C00F03AF8024B181C02F080FA45
:10092000BD4680BD0C0100200030014090B585B06F
:1009300000AF021CFB1D1A703B1C0F3300221A7003
:100940003C1C0F340A49FA1D80235B01081C111C52
:10095000012202F005FB031C23703B1C0F331B78A4
:10096000002B01D000F006F8BD4605B090BDC04692
:100970000C01002080B500AF034B181C02F0B6FA42
:10098000FFF798FFBD4680BD0C01002080B588B000
:1009900000AF78601E4B1E4AD26A02210A43DA6217
:1009A0003B1C0C3308221A603B1C0C3302225A6099
:1009B0003B1C0C3301229A603B1C0C330322DA608F
:1009C0003B1C0C3300221A61124A3B1C0C33101CD6
:1009D000191C00F01DFC3B1C0C3320221A603B1C30
:1009E0000C3300221A613B1C0C3302229A60094A24
:1009F0003B1C0C33101C191C00F00AFC044B044A6D
:100A0000526B802149010A435A63BD4608B080BD3C
:100A1000001002400004005080B586B000AF444B87
:100A2000434AD26A01210A43DA62414B404AD26A00
:100A300002210A43DA623E4B3D4AD26A02210A434E
:100A4000DA623B4B3A4AD26A01210A43DA62384BF6
:100A5000374AD26A02210A43DA623B1D802212021F
:100A60001A603B1D01225A603B1D00229A603B1D0B
:100A70000322DA60A023DA053B1D101C191C00F0CC
:100A8000C7FB3B1D802212011A602A4A3B1D101C25
:100A9000191C00F0BDFB3B1D04221A60254A3B1DBA
:100AA000101C191C00F0B4FB3B1D8022D2001A6000
:100AB000204A3B1D101C191C00F0AAFB3B1D802284
:100AC00052001A603B1D00225A603B1D02229A60B0
:100AD000A023DA053B1D101C191C00F099FB154AD8
:100AE0008023DB00101C191C002200F02FFDA02326
:100AF000DA0580231B02101C191C002200F026FDC1
:100B0000A023DA0580231B02101C191C012200F00F
:100B10001DFD084B181C0421012200F017FD0A20BE
:100B200000F060F8FFF7C6FEBD4606B080BDC046C7
:100B3000001002400004005080B582B000AF021CDB
:100B4000BB1D1A80A023DA0580231B02101C191C70
:100B5000002200F0FBFC0D4A80231B01101C191C15
:100B6000012200F0F3FCBB1D1B88DBB2181CFFF751
:100B7000DDFEA023DA0580231B02101C191C0122B4
:100B800000F0E4FCBD4602B080BDC0460004005049
:100B900080B582B000AF021CFB1D1A70A023DA05DD
:100BA00080231B02101C191C002200F0CFFC0C4AF1
:100BB00080231B01101C191C002200F0C7FCFB1D28
:100BC0001B78181CFFF7B2FEA023DA0580231B0256
:100BD000101C191C012200F0B9FCBD4602B080BDFA
:100BE0000004005080B582B000AF78607B68181CAC
:100BF00000F01AFABD4602B080BDC04680B582B092
:100C000000AFFB1D01221A700C4B0D4A1A600D4BF0
:100C10000D4A1A600B4B1B681B689847FF2000F0B9
:100C20002FF80A4B181C00F01FF8FB1D00221A7049
:100C3000FB1D1B78181CBD4602B080BDEC000020D7
:100C400034000020F0000020000000203C000020C4
:100C500080B500AF034B1B685B699847031C181CE9
:100C6000BD4680BDF000002080B582B000AF786046
:100C7000024B7A681A60BD4602B080BDEC000020CD
:100C800090B585B000AF021CBB1D1A800023FB602D
:100C90000E4B1B689C6800200021AB221123A0474B
:100CA0000023FB600AE0094B1B685B68BA1D1288D1
:100CB000D2B2101C9847FB680133FB60FA68044B02
:100CC0009A42F0D9BD4605B090BDC046F000002064
:100CD000170C000080B582B000AFBB1D18803B1D13
:100CE0001980FB1C1A70FB1CFA1C1278203A1A702F
:100CF0000D4B1B681A68FB1C19780B4B1B68DB88B3
:100D0000181C094B1B689B8843434B43D318BA1DDF
:100D100011883A1D1288081C111C1A1C00F0D8F802
:100D2000BD4602B080BDC046EC00002090B589B041
:100D300000AFBA601A1C3B1C0E3318803B1C0C33EE
:100D40001980FB1D1A703B1C1E3301221A803B1CAC
:100D50001C3300221A800023BB6100233B61BB6867
:100D60007B6102E0BB690133BB617B691B785A1E62
:100D70009341DBB27A6901327A61002BF2D1FFF73D
:100D800067FF021C414B1B689B88101C191C03F059
:100D9000B7FE031C3B61FB1D1B78022B1BD0032BF2
:100DA00012D0012B28D13A69BB69D21A374B1B6884
:100DB0009B8853435B0899B23B1C1E333A1C0E328E
:100DC00012888A181A801EE03B1C1E333A1C0E3211
:100DD00012881A8017E03A69BB69D31A9AB22B4B72
:100DE0001B689B88534399B23B1C1E333A1C0E323E
:100DF00012888A1A1A8006E03B1C1E333A1C0E32F7
:100E000012881A80C04620E0BB681B783A1C1E324C
:100E100011883A1C0C321288081C111C1A1CFFF78E
:100E200059FF1A4B1B6899883B1C1E333A1C1E3213
:100E300012888A181A80BB680133BB603B1C1C33C4
:100E40003A1C1C32128801321A80BB681B785A1E69
:100E50009341DCB2FFF7FCFE021C3B1C1C331988DB
:100E60000A4B1B689B884B43D31A1B04190C074B76
:100E70001B689B881A1C002391425B41DBB2234014
:100E8000DBB2002BC0D1BD4609B090BDEC00002004
:100E900080B500AF0C4B1B68DB689847C046A023A9
:100EA000DA0580235B00101C191C00F031FB031CC9
:100EB000F5D1064B181C0421012200F047FB0A2043
:100EC000FFF790FEBD4680BDF000002000040050FA
:100ED00090B587B000AF3A60BB1D021C1A803B1D65
:100EE0000A1C1A8000237B6100233B613B1C0E33EC
:100EF00000221A803B1C0C3300221A80214B1A68F6
:100F00003B1C0C3392881A801E4B1A683B1C0E3314
:100F1000D2881A801C4B1B689C68BA1D3B1C0C3382
:100F200012881B88D3189BB2013B9AB2391D3B1C17
:100F30000E3309881B88CB189BB2013B9BB2B91DAD
:100F40000888391D0988A0473B1C0E331B883A1CB2
:100F50000C32128853433B6100237B610BE00A4B48
:100F60001B685B6839687A698A181278101C984780
:100F70007B6901337B617A693B699A42EFD3BD4655
:100F800007B090BDEC000020F000002080B500AF5D
:100F90000A4B0A4A126840210A431A60074B074A63
:100FA000126802210A431A60032000F009F803F0D6
:100FB000A9FC0023181CBD4680BDC046002002408D
:100FC00080B582B000AF786001F09CF8031C181C5B
:100FD000FA23990003F094FD031C181C00F00AF991
:100FE00001235A427B68101C191C002200F0DCF817
:100FF0000023181CBD4602B080BDC04680B500AFBE
:10100000034B1B685A1C024B1A60BD4680BDC0468C
:10101000F400002080B500AF024B1B68181CBD46D1
:1010200080BDC046F400002080B584B000AF786079
:101030000023FB60FFF7EEFF031CFB60C046FFF7D9
:10104000E9FF021CFB68D21A7B689A42F7D3BD46BF
:1010500004B080BD80B582B000AF021CFB1D1A70C9
:10106000064BFA1D1278111C1F220A400121081C90
:101070009040021C1A60BD4602B080BD00E100E055
:10108000B0B582B000AF021C3960FB1D1A70FB1DA9
:101090001B787F2B32D93049FB1D1B781A1C0F237C
:1010A0001340083B98082C4AFB1D1B781C1C0F237F
:1010B0002340083B9B0806339B00D3185B68FA1D4E
:1010C0001278141C03222240D200FF24251C9540D4
:1010D0002A1CD2431A403B689C01FF231C40FB1D85
:1010E0001B781D1C03232B40DB00251C9D402B1C63
:1010F0001A43831D9B00CB185A6029E0174BFA1D39
:10110000127852B292081549F81D007840B2800852
:10111000C03080004158F81D0078041C0320204096
:10112000C000FF24251C8540281CC04308403968A6
:101130008C01FF210C40F91D09780D1C0321294069
:10114000C900251C8D40291C0143C0329200D1509A
:10115000BD4602B0B0BDC04600ED00E000E100E0D9
:1011600080B582B000AF78607B685A1E0C4B9A4203
:1011700001D9012310E00B4B7A68013A5A60012330
:101180005B42181C0321FFF77BFF064B00229A608D
:10119000044B07221A600023181CBD4602B080BD14
:1011A000FFFFFF0010E000E080B584B000AFB96041
:1011B0007A603B1C0F33021C1A703B1C0F33002259
:1011C0009A56BB68101C191CFFF75AFFBD4604B0A5
:1011D00080BDC04680B582B000AF021CFB1D1A70F6
:1011E000FB1D1B785BB2181CFFF734FFBD4602B035
:1011F00080BDC04680B582B000AF78607B68181CA7
:10120000FFF7AEFF031C181CBD4602B080BDC046F0
:1012100080B586B000AF786039600023FB600023A2
:10122000BB6000233B6100237B615CE17B690122A1
:10123000111C99400B1CFB603B681B68FA6813404B
:10124000BB60BA68FB689A4200D049E13B685B68C2
:10125000022B03D03B685B68122B25D17B69DA082F
:101260007B6808329200D3583B617A6907231340A8
:101270009B000F22111C99400B1CDA433B69134061
:101280003B613B681A69796907230B409B00111C7D
:1012900099400B1C3A6913433B617B69DA087B6810
:1012A000083292003969D1503B685B68012B0BD042
:1012B0003B685B68022B07D03B685B68112B03D04F
:1012C0003B685B68122B34D17B689B683B617B6910
:1012D0005B000322111C99400B1CDA433B6913404D
:1012E0003B613B68DA687B695B00111C99400B1C11
:1012F0003A6913433B617B683A699A607B685B6833
:101300003B617B690122111C99400B1CDA433B694C
:1013100013403B613B685A68102313401A097B69EC
:10132000111C99400B1C3A6913433B617B683A6975
:101330005A607B681B683B617B695B000322111C60
:1013400099400B1CDA433B6913403B613B685A6888
:1013500003231A407B695B00111C99400B1C3A69FE
:1013600013433B617B683A691A607B68DB683B61C9
:101370007B695B000322111C99400B1CDA433B691B
:1013800013403B613B689A687B695B00111C994084
:101390000B1C3A6913433B617B683A69DA603B682E
:1013A0005A6880235B05134000D199E0514B514AA4
:1013B000526B01210A435A634F4B7A6992080232F9
:1013C0009200D3583B617A69032313409B0010229B
:1013D00052429A403B6913403B617A68A023DB0587
:1013E0009A4219D07A68454B9A4213D07A68444B96
:1013F0009A420DD07A68434B9A4207D07A68424BA2
:101400009A4201D1042300E0052300E0032300E019
:10141000022300E0012300E00023796903220A404F
:10142000920093403A6913433B61334B7A699208C7
:10143000023292003969D150344B1B683B61BB6862
:10144000DA433B6913403B613B685A6880235B0287
:10145000134003D03A69BB6813433B612B4B3A6995
:101460001A602A4B5B683B61BB68DA433B691340F7
:101470003B613B685A6880239B02134003D03A6962
:10148000BB6813433B61214B3A695A601F4B9B6811
:101490003B61BB68DA433B6913403B613B685A6878
:1014A00080235B03134003D03A69BB6813433B615D
:1014B000164B3A699A60154BDB683B61BB68DA43AF
:1014C0003B6913403B613B685A6880239B03134090
:1014D00003D03A69BB6813433B610C4B3A69DA604D
:1014E0007B6901337B617B690F2B00D89EE6BD468B
:1014F00006B080BD00100240000001400004005012
:1015000000080050000C0050001C00500004014076
:1015100080B584B000AF78600A1CBB1C1A807B6861
:101520001B69BA1C1288134004D03B1C0F330122E4
:101530001A7003E03B1C0F3300221A703B1C0F3360
:101540001B78181CBD4604B080BDC04680B582B073
:1015500000AF7860BB1C19807B1C1A707B1C1B7849
:10156000002B04D0BB1C1A887B689A6103E0BB1C6B
:101570001A887B689A62BD4602B080BD80B582B091
:1015800000AF78600A1CBB1C1A807B685A69BB1CC0
:101590001B885A407B685A61BD4602B080BDC04678
:1015A00080B582B000AF021CBB1D1A80084B5B697E
:1015B000BA1D1288134008D0054BBA1D12885A6113
:1015C000BB1D1B88181C00F005F8BD4602B080BD8D
:1015D0000004014080B582B000AF021CBB1D1A8020
:1015E000BD4602B080BDC04680B582B000AF786015
:1015F000044B044A51687A680A435A60BD4602B0F7
:1016000080BDC0460070004080B582B000AF7860F9
:10161000044B044A52687968C9430A405A60BD467F
:1016200002B080BD0070004080B500AF074B074A94
:10163000126802210A431A60054B054A1269042107
:101640000A431A6130BFBD4680BDC04600700040ED
:1016500000ED00E080B500AF044B044A1268802121
:10166000C9000A431A60BD4680BDC04600700040F4
:1016700080B500AF044B044A1268802189000A43F8
:101680001A60BD4680BDC0460070004080B584B081
:1016900000AF78600023FB607B681A680123134069
:1016A00000D176E0C54BDA680C231340082B0BD031
:1016B000C24BDA680C2313400C2B13D1BF4BDA68F2
:1016C00080235B0213400DD0BC4B1A6880239B0221
:1016D00013405DD07B685A6880235B029A4257D0E2
:1016E0000123CDE2B54BB54A1168B54A0A401A60EC
:1016F000FFF790FC031CFB6009E0FFF78BFC021C6A
:10170000FB68D21AAF4B9A4201D90323B8E2AB4B24
:101710001A6880239B021340EFD1A84BA74A116897
:10172000A74A11407A6852680A431A607B685A686F
:1017300080235B029A4215D1FFF76CFC031CFB600F
:1017400009E0FFF767FC021CFB68D21A9D4B9A4226
:1017500001D9032394E2994B1A6880239B0213401A
:10176000EFD016E0FFF756FC031CFB6009E0FFF723
:1017700051FC021CFB68D21A924B9A4201D90323F6
:101780007EE28E4B1A6880239B021340EFD100E06B
:10179000C0467B681A680223134000D172E0874B71
:1017A000DA680C231340042B0BD0844BDA680C232B
:1017B00013400C2B1BD1814BDA6880235B02134052
:1017C00015D17E4B1A680423134005D07B68DB6873
:1017D000012B01D0012353E2784B784A51687A4AB1
:1017E00011407A68126912020A435A604AE07B6823
:1017F000DB68002B28D0714B704A12680921101C3D
:101800008843011C7A68D2680A431A60FFF702FC19
:10181000031CFB6008E0FFF7FDFB021CFB68D31A0A
:10182000642B01D903232BE2644B1A680423134071
:10183000F1D0624B614A5168634A11407A6812697B
:1018400012020A435A601DE05C4B5C4A126809218F
:10185000101C8843011C7A68D2680A431A60FFF79B
:10186000D9FB031CFB6008E0FFF7D4FB021CFB68FC
:10187000D31A642B01D9032302E2504B1A680423C4
:101880001340F1D17B681A681023134000D171E036
:101890004A4BDA680C2313401FD1484B1A68802347
:1018A0009B00134005D07B68DB69012B01D001232D
:1018B000E6E1424B414A5168444A11407A68526A13
:1018C0000A435A603D4B3D4A52681202110A7A6837
:1018D000126A12060A435A604CE07B68DB69002BEF
:1018E0002ED0364B354A1268802149000A431A60CF
:1018F000FFF790FB031CFB6008E0FFF78BFB021C6B
:10190000FB68D31A642B01D90323B9E12B4B1A6866
:1019100080239B001340F0D0284B284A51682B4A63
:1019200011407A68526A0A435A60244B234A52682B
:101930001202110A7A68126A12060A435A6019E002
:101940001E4B1E4A1168224A0A401A60FFF762FBCA
:10195000031CFB6008E0FFF75DFB021CFB68D31A69
:10196000642B01D903238BE1144B1A6880239B005D
:101970001340F0D17B681A680823134043D07B687A
:101980005B69002B26D00D4B0C4A126D01210A43D6
:101990001A65FFF73FFB031CFB6008E0FFF73AFB0B
:1019A000021CFB68D31A642B01D9032368E1034BA3
:1019B0001A6D02231340F1D025E0C046001002400A
:1019C000FFFFFAFF88130000FFE0FFFFFF1FFFFF8C
:1019D000FFFEFFFFAC4BAC4A126D01218A431A6532
:1019E000FFF718FB031CFB6008E0FFF713FB021C6A
:1019F000FB68D31A642B01D9032341E1A24B1A6D72
:101A000002231340F1D17B681A682023134048D089
:101A10007B689B69002B25D09B4B9B4A92680121D8
:101A20000A439A60984B984A526B01210A435A63C1
:101A3000964B964A126A96490A431A62FFF7EAFAE7
:101A4000031CFB6008E0FFF7E5FA021CFB68D31AF1
:101A5000642B01D9032313E18B4B9A6802231340B3
:101A6000F1D01EE0884B884A926801218A439A602F
:101A7000864B864A116A874A0A401A62FFF7CAFAF9
:101A8000031CFB6008E0FFF7C5FA021CFB68D31AD1
:101A9000642B01D90323F3E07B4B9A6802231340A4
:101AA000F1D17B681A680423134000D176E0764BAD
:101AB000754A926B802149050A439A63764B764AB0
:101AC0001268802149000A431A60FFF7A3FA031C39
:101AD000FB6008E0FFF79EFA021CFB68D31A642B38
:101AE00001D90323CCE06C4B1A6880235B001340C0
:101AF000F0D0654B644A116D684A0A401A65FFF7D9
:101B000089FA031CFB6009E0FFF784FA021CFB68FA
:101B1000D21A634B9A4201D90323B1E05A4B1A6D92
:101B200080239B001340EFD1574B574A116D5B4AFE
:101B300011407A6892680A431A657B689A68802324
:101B40005B009A4215D1FFF765FA031CFB6009E0C0
:101B5000FFF760FA021CFB68D21A514B9A4201D976
:101B600003238DE0484B1A6D80239B001340EFD078
:101B700014E0FFF74FFA031CFB6009E0FFF74AFA95
:101B8000021CFB68D21A464B9A4201D9032377E024
:101B90003D4B1A6D80239B001340EFD17B689B6AFD
:101BA000002B00D16BE0384BDA680C2313400C2B70
:101BB00063D07B689B6A022B44D1334B324A116855
:101BC000384A0A401A60FFF725FA031CFB6008E058
:101BD000FFF720FA021CFB68D31A642B01D90323F8
:101BE0004EE0294B1A6880239B041340F0D1264B0A
:101BF000254AD1682C4A11407A68106B7A68526B7A
:101C000010437A68D26A02430A43DA601E4B1E4AC6
:101C10001268802149040A431A60FFF7FBF9031C8C
:101C2000FB6008E0FFF7F6F9021CFB68D31A642B8F
:101C300001D9032324E0144B1A6880239B0413402A
:101C4000F0D01CE0104B104A1168164A0A401A6086
:101C5000FFF7E0F9031CFB6008E0FFF7DBF9021C6B
:101C6000FB68D31A642B01D9032309E0064B1A68D9
:101C700080239B041340F0D101E0012300E0002306
:101C8000181CBD4604B080BD001002400000014099
:101C900001200000FEDFFFFF00700040FFFAFFFFA1
:101CA00088130000FFFFFFFEFFFF02FF80B584B036
:101CB00000AF786039600023FB60B94B1A680123DC
:101CC0001A403B689A4200D3B5E0B54BB44A12685B
:101CD0000121101C8843011C3A680A431A60B04B6A
:101CE0001A6801231A403B689A4201D001237EE121
:101CF0007B681A68022313400AD0AA4BA94AD2680B
:101D0000F021101C8843011C7A6892680A43DA604B
:101D10007B681A680123134000D147E17B685B6848
:101D2000022B07D19F4B1A6880239B02134020D1BE
:101D300001235CE17B685B68002B07D1994B1A6833
:101D400080239B00134014D1012350E17B685B6822
:101D5000032B07D1934B1A6880239B04134008D1AF
:101D6000012344E18F4B1A680423134001D101235E
:101D70003DE18C4B8B4AD2680321101C8843011C27
:101D80007A6852680A43DA60FFF744F9031CFB6083
:101D90007B685B68022B11D109E0FFF73BF9021C5D
:101DA000FB68D21A804B9A4201D903231FE17D4B75
:101DB000DA680C231340082BEFD1F7E07B685B68EF
:101DC000032B11D109E0FFF725F9021CFB68D21A99
:101DD000754B9A4201D9032309E1724BDA680C234F
:101DE00013400C2BEFD1E1E07B685B68002B1AD12C
:101DF00009E0FFF70FF9021CFB68D21A6A4B9A42FE
:101E000001D90323F3E0674BDA680C231340F0D1C8
:101E1000CCE0FFF7FFF8021CFB68D21A624B9A4233
:101E200002D90323E3E0C0465E4BDA680C2313407B
:101E3000042BEED1BAE07B681A68022313400AD063
:101E4000584B584AD268F021101C8843011C7A680C
:101E500092680A43DA607B681A680123134000D154
:101E60008BE07B685B68022B07D14E4B1A6880239E
:101E70009B02134020D10123B9E07B685B68002BF3
:101E800007D1484B1A6880239B00134014D10123CB
:101E9000ADE07B685B68032B07D1424B1A68802357
:101EA0009B04134008D10123A1E03E4B1A68042390
:101EB000134001D101239AE03A4B3A4AD2680321F8
:101EC000101C8843011C7A6852680A43DA60FFF7E5
:101ED000A1F8031CFB607B685B68022B11D109E051
:101EE000FFF798F8021CFB68D21A2F4B9A4201D9CF
:101EF00003237CE02B4BDA680C231340082BEFD133
:101F00003BE07B685B68032B11D109E0FFF782F8A7
:101F1000021CFB68D21A244B9A4201D9032366E0C3
:101F2000204BDA680C2313400C2BEFD125E07B68A3
:101F30005B68002B1AD109E0FFF76CF8021CFB6804
:101F4000D21A194B9A4201D9032350E0154BDA6893
:101F50000C231340F0D110E0FFF75CF8021CFB6883
:101F6000D21A114B9A4202D9032340E0C0460D4BCE
:101F7000DA680C231340042BEED1094B084A12688F
:101F80000121101C8843011C3A680A431A60044B63
:101F90001A6801231A403B689A4207D0012326E0C1
:101FA0000020024000100240881300007B681A687D
:101FB0000423134008D0104B0F4AD1680F4A114038
:101FC0007A68D2680A43DA607B681A68082313408B
:101FD00009D0094B084AD168094A11407A68126948
:101FE000D2000A43DA600320FEF7EAFF0023181C40
:101FF000BD4604B080BDC04600100240FFF8FFFFA0
:10200000FFC7FFFF80B586B000AF00233B61002310
:10201000FB600023BB6000237B6000237B61334BAC
:102020005A68E0231B0213405B0B7B60304B7A68DD
:102030009200D3587B602D4BDA680C231340042B9D
:102040000BD002D8002B05D048E0082B10D00C2B69
:1020500011D043E07B687B6143E0244B1A68102376
:10206000134002D0234B7B613BE0234B7B6138E084
:10207000224B7B6135E01D4BDA68F0239B03134054
:102080003B611A4BDA68C0231B041340FB603B69B9
:102090009B0C1B4AD35CDBB23B61FB689B0D01339D
:1020A000FB60124BDA6880235B021340BB60BB68A5
:1020B000002B09D13B69104A5343181CF96802F000
:1020C0001FFD031C7B610CE03B690C4A5343181C49
:1020D000F96802F015FD031C7B6102E07B687B61FF
:1020E000C0467B69181CBD4606B080BD001002408A
:1020F000DC91000800093D000024F40000127A0081
:102100004400002080B500AFFFF77CFF021C084BA5
:10211000D968F0230B401B090649CB5CDBB2DA40DF
:10212000054B1A60044B1B68181CBD4680BDC04699
:1021300000100240500000206000002080B500AF79
:10214000FFF7E0FF021C074BD968E023DB000B40E0
:102150001B0A0549CB5CDBB2111CD9400B1C181CB7
:10216000BD4680BD001002405000002080B500AF89
:10217000FFF7C8FF021C074BD968E0239B010B4007
:10218000DB0A0549CB5CDBB2111CD9400B1C181CC7
:10219000BD4680BD001002405000002080B584B0D4
:1021A00000AF78600023FB600023BB607B681A6887
:1021B000012313400AD06E4B6D4AD26C0321101CD0
:1021C0008843011C7A6852680A43DA647B681A689B
:1021D000022313400AD0664B654AD26C0C21101CB6
:1021E0008843011C7A6892680A43DA647B681A683B
:1021F0000423134008D05E4B5D4AD16C5D4A114008
:102200007A68D2680A43DA647B681A680823134044
:1022100008D0574B564AD16C574A11407A68126918
:102220000A43DA647B681A682023134000D17EE0F9
:102230004F4B4F4A926B802149050A439A634F4B9B
:102240004E4A1268802149000A431A60FEF7E2FEF6
:10225000031CFB6008E0FEF7DDFE021CFB68D31ADE
:10226000642B01D903237FE0444B1A6880235B0071
:102270001340F0D03E4B1A6D7B685B695A40C02317
:102280009B02134014D03A4B1A6D3D4B1340BB6078
:10229000374B374A126D802109030A431A65344BC4
:1022A000334A116D374A0A401A65314BBA681A65CC
:1022B0007B685A6980235B029A4214D1FEF7AAFE1A
:1022C000031CFB6009E0FEF7A5FE021CFB68D21AA6
:1022D0002D4B9A4201D9032346E0254B1A6D8023EA
:1022E0009B001340EFD07B685A69C0239B021A40C1
:1022F000C0239B029A420BD11D4B1D4A1168234AF1
:1023000011407A6850691E4A02400A431A6005E08B
:10231000174B174A11681D4A0A401A60144B144A99
:10232000116D174A11407A6852690A431A657B6831
:102330001A684023134008D00D4B0D4AD16C144A43
:1023400011407A6892690A43DA647B681A688023CC
:10235000134008D0064B064AD16C0E4A11407A68E9
:10236000D2690A43DA640023181CBD4604B080BD5C
:1023700000100240FFF3FFFFFFCFFFFF007000409F
:10238000FFFFFCFFFFFFF7FF88130000FFFFCFFFF9
:10239000FFFFFFFBFFFFF3FF80B582B000AF786067
:1023A0007B68002B01D1012370E07A682123D35C84
:1023B000DBB2002B03D17B68181C02F0A7FA7A6805
:1023C00021230221D1547B681B68CA225A627B6890
:1023D0001B6853225A627B68181C00F07FFC031CA8
:1023E00009D07B681B68FF225A627A682123042186
:1023F000D15401234AE07B681B687A6812689168AF
:10240000244A0A409A607B681B687A68126891685F
:102410007A6850687A68126910437A689269024350
:102420000A439A607B681B687A68D2681A617B6885
:102430001B687A68126811697A68926812040A4304
:102440001A617B681B687A681268D26880218A43A7
:10245000DA607B681B687A681268D26C03218A4351
:10246000DA647B681B687A681268D16C7A68D06914
:102470007A68526902430A43DA647B681B68FF2268
:102480005A627A6821230121D1540023181CBD46C9
:1024900002B080BDBFFF8FFF90B587B000AFF8607E
:1024A000B9607A6000237B61FA682023D35C012B3A
:1024B00001D10223B5E0FA6820230121D154FA6842
:1024C00021230221D1547B68002B25D1FB681B6896
:1024D0009A684023134002D1BB6800221A72BB687D
:1024E0001B78181C00F024FC031C1C04BB685B78E0
:1024F000181C00F01DFC031C1B021C43BB689B78CE
:10250000181C00F015FC031C221C1A43BB681B7A24
:102510001B0413437B611FE0FB681B689A68402320
:10252000134007D0BB681B78181C00F023FC031C69
:102530007B6102E0BB6800221A72BB681B781A0438
:10254000BB685B781B021A43BB689B781A43BB6865
:102550001B7A1B0413437B61FB681B68CA225A6207
:10256000FB681B6853225A62FB68181C00F0B6FB1C
:10257000031C0DD0FB681B68FF225A62FA682123F6
:102580000421D154FA6820230021D154012348E0CA
:10259000FB681B687969254A0A401A60FB681B685A
:1025A000FA6812689168224A0A409A60FB681B68C0
:1025B000FA6812689168BA68D068BA68126902430A
:1025C0000A439A60FB681B68FA681268D268802127
:1025D0008A43DA60FB681B689A682023134013D192
:1025E000FB68181C00F052FB031C0DD0FB681B6835
:1025F000FF225A62FA6821230421D154FA68202369
:102600000021D15401230CE0FB681B68FF225A62B1
:10261000FA6821230121D154FA6820230021D154E2
:102620000023181CBD4607B090BDC0467F7F7F00C9
:10263000FFFFFBFF80B586B000AFF860B9607A603D
:1026400000237B61FB681B689A6ABB685A60FB6861
:102650001B681A68224B13407B617A69FC239B0339
:1026600013401B0CDAB2BB681A707A69FE23DB01D7
:1026700013401B0ADAB2BB685A707B69DAB27F2357
:102680001340DAB2BB689A707A698023DB03134087
:102690001B0CDAB2BB681A727B68002B1AD1BB68BC
:1026A0001B78181C00F066FB031C1A1CBB681A7010
:1026B000BB685B78181C00F05DFB031C1A1CBB6830
:1026C0005A70BB689B78181C00F054FB031C1A1C42
:1026D000BB689A700023181CBD4606B080BDC0467A
:1026E0007F7F7F0090B587B000AFF860B9607A60F7
:1026F00000237B61FA682023D35C012B01D10223E4
:10270000A7E0FA6820230121D154FA68212302218D
:10271000D1547B68002B0ED1BB685B781A1C102348
:10272000134008D0BB685B7810229343DBB20A33B6
:10273000DAB2BB685A707B68002B1CD1BB68DB78AF
:10274000181C00F0F5FA031C1C04BB685B78181C0D
:1027500000F0EEFA031C1B021C43BB689B78181C9C
:1027600000F0E6FA031C221C1A43BB681B785B03CB
:1027700013437B611CE0BB685B78181C00F0FAFA1D
:10278000031C7B61BB689B78181C00F0F3FA031CE8
:102790007B61BB68DB781A04BB685B781B021A4359
:1027A000BB689B781A43BB681B785B0313437B6150
:1027B000FB681B68CA225A62FB681B6853225A6274
:1027C000FB68181C00F08AFA031C0DD0FB681B681C
:1027D000FF225A62FA6821230421D154FA68202387
:1027E0000021D154012334E0FB681B6879691B4A3E
:1027F0000A405A60FB681B68FA681268D268802138
:102800008A43DA60FB681B689A682023134013D15F
:10281000FB68181C00F03AFA031C0DD0FB681B681B
:10282000FF225A62FA6821230421D154FA68202336
:102830000021D15401230CE0FB681B68FF225A627F
:10284000FA6821230121D154FA6820230021D154B0
:102850000023181CBD4607B090BDC0463FFFFF00D7
:1028600080B586B000AFF860B9607A6000237B6104
:10287000FB681B685A68224B13407B617A69FF230F
:102880001B0413401B0CDAB2BB68DA707A69F823B8
:102890005B0113401B0ADAB2BB685A707B69DAB27B
:1028A0003F231340DAB2BB689A707A69E0231B02B7
:1028B00013405B0BDAB2BB681A707B68002B1AD12D
:1028C000BB68DB78181C00F055FA031C1A1CBB68A7
:1028D000DA70BB685B78181C00F04CFA031C1A1CF9
:1028E000BB685A70BB689B78181C00F043FA031C45
:1028F0001A1CBB689A700023181CBD4606B080BD28
:102900003FFFFF0090B589B000AFF860B9607A6012
:102910000023FB610023BB61FA682023D35C012BF9
:1029200001D102234DE1FA6820230121D154FA6834
:1029300021230221D1547B68002B36D1FB681B6810
:102940009A684023134002D1BB6800221A72BB6808
:102950001B78181C00F0ECF9031C1C04BB685B78A6
:10296000181C00F0E5F9031C1B021C43BB689B7894
:10297000181C00F0DDF9031C221C1A43BB681B7AEB
:102980001B04141C1C43BA682023D35C181C00F0E1
:10299000CFF9031C1B06221C1A43BB68DB691A43D0
:1029A000BB685B691343FB613FE0FB681B689A6887
:1029B0004023134007D0BB681B78181C00F0DAF9DD
:1029C000031CFB6102E0BB6800221A72BB68DB6972
:1029D000002B08D1BA682023D35C181C00F0CAF978
:1029E000031CFB6107E0BA682023D35C181C00F0CD
:1029F000C1F9031CFB61BB681B781A04BB685B78D8
:102A00001B021A43BB689B781A43BB681B7A1B04E2
:102A10001A43B9682023CB5C1B061A43BB68DB69E9
:102A20001A43BB685B691343FB61BB685A68BB68A8
:102A30009B691343BB61FB681B68CA225A62FB682F
:102A40001B6853225A62BB685A6A80235B009A4211
:102A50004ED1FB681B68FA68126891685B4A0A40AD
:102A60009A60FB681B68FA681268D168FF220A4006
:102A700057490A43DA60FEF7CDFA031C7B6116E082
:102A8000FEF7C8FA021C7B69D21AFA239B009A420D
:102A90000DD9FB681B68FF225A62FA6821230321C3
:102AA000D154FA6820230021D154032389E0FB6824
:102AB0001B68DA6801231340E2D0FB681B68FA69DF
:102AC000DA61FB681B68BA695A64FB681B68FA68BC
:102AD00012689268802149000A439A60FB681B686B
:102AE000FA6812689268802149010A439A604DE0B1
:102AF000FB681B68FA6812689168364A0A409A6057
:102B0000FB681B68FA681268D168FF220A403249E4
:102B10000A43DA60FEF77EFA031C7B6116E0FEF7DB
:102B200079FA021C7B69D21AFA239B009A420DD9CA
:102B3000FB681B68FF225A62FA6821230321D154E3
:102B4000FA6820230021D15403233AE0FB681B6874
:102B5000DA6802231340E2D0FB681B68FA691A6244
:102B6000FB681B68BA699A64FB681B68FA6812689C
:102B70009268802189000A439A60FB681B68FA68A2
:102B800012689268802189010A439A60134B134AA4
:102B90001268802189020A431A60104B0F4A92681A
:102BA000802189020A439A60FB681B68FF225A62EF
:102BB000FA6821230121D154FA6820230021D1543D
:102BC0000023181CBD4609B090BDC046FFFEFFFFA4
:102BD0007FFEFFFFFFFDFFFF7FFDFFFF00040140C1
:102BE00080B582B000AF78607B681B68DA688023AC
:102BF0005B00134014D07B681B689A6880235B01DC
:102C000013400DD07B68181C00F038F87B681B68F7
:102C10007A681268D168FF220A4015490A43DA60CF
:102C20007B681B68DA6880239B00134014D07B68A4
:102C30001B689A6880239B0113400DD07B68181C89
:102C400000F0E6F87B681B687A681268D168FF229A
:102C50000A4008490A43DA60074B802292025A610F
:102C60007A6821230121D154BD4602B080BDC046FF
:102C70007FFEFFFF7FFDFFFF0004014080B582B0B3
:102C800000AF7860BD4602B080BDC04680B584B05C
:102C900000AF78607B681B687A681268D268A021F0
:102CA0008A43DA60FEF7B6F9031CFB600AE0FEF720
:102CB000B1F9021CFB68D21AFA239B009A4201D98F
:102CC000032306E07B681B68DA6820231340EED0FC
:102CD0000023181CBD4604B080BDC04680B584B03A
:102CE00000AF78607B681B68DA68402313401AD114
:102CF0007B681B6801225242DA60FEF78BF9031CE5
:102D0000FB600AE0FEF786F9021CFB68D21AFA2380
:102D10009B009A4201D9032306E07B681B68DA68AE
:102D200040231340EED00023181CBD4604B080BDE4
:102D300080B584B000AF021CFB1D1A700023FB603D
:102D400007E0FB680133FB60FB1DFA1D12780A3AAD
:102D50001A70FB1D1B78092BF3D8FB68DBB21B0133
:102D6000DAB2FB1D1B781343DBB2181CBD4604B05E
:102D700080BDC04680B584B000AF021CFB1D1A7038
:102D80000023FB60FB1D1B781B09DBB21A1C131C04
:102D90009B009B185B00FB60FB1D1A780F23134000
:102DA000DAB2FB68DBB2D318DBB2181CBD4604B044
:102DB00080BDC04680B586B000AFF860B9607A606B
:102DC00000237B61FB681B6850337B61BB689B0001
:102DD0007A69D3187B617B697A681A60BD4606B050
:102DE00080BDC04680B584B000AF786039600023F4
:102DF000FB607B681B685033FB603B689B00FA6894
:102E0000D318FB60FB681B68181CBD4604B080BD6E
:102E100080B582B000AF7860BD4602B080BDC046CC
:102E200080B582B000AF78607B68002B01D10123B0
:102E300056E07A685123D35CDBB2002B03D17B6868
:102E4000181C00F07DF87A6851230221D1547B6868
:102E50001B687A681268126840218A431A607B688E
:102E60001B687A6851687A68926811437A68D268F8
:102E700011437A68126911437A68526911437A687A
:102E8000906980229200024011437A68D26911430E
:102E90007A68126A11437A68926A0A431A607B68F8
:102EA0001B687A689269110C042211407A68526A90
:102EB0000A435A607B681B687A68D26A1A617B6829
:102EC0001B687A681268D169074A0A40DA617A6831
:102ED00052230021D1547A6851230121D154002377
:102EE000181CBD4602B080BDFFF7FFFF80B582B061
:102EF00000AF78607B68002B01D101231CE07A6869
:102F000051230221D1547B681B687A6812681268C9
:102F100040218A431A607B68181C00F019F87A680F
:102F200052230021D1547A6851230021D1547A6868
:102F300050230021D1540023181CBD4602B080BD8F
:102F400080B582B000AF7860BD4602B080BDC0469B
:102F500080B582B000AF7860BD4602B080BDC0468B
:102F600080B584B000AFF860B9603B60BB1D1A80CB
:102F7000FA685123D35CDBB2012B00D03BE1BB6884
:102F8000002B03D0BB1D1B88002B01D1012333E193
:102F9000FA685023D35C012B01D102232CE1FA689B
:102FA00050230121D154FA6851231221D154FA68D7
:102FB00052230021D154FB68BA681A63FB68BA1D1A
:102FC00012889A86FB68BA1D1288DA86FB6800228E
:102FD000DA64FB6800229A64FB6800229A87FB6827
:102FE0000022DA87FB689A6A80239B019A4210D1FB
:102FF000FB681B68FA6812681168814A0A401A6007
:10300000FB681B68FA6812681268802189010A430C
:103010001A60FB689A6880231B029A4208D1FB68F9
:103020001B68FA68126812688021C9010A431A6095
:10303000FB681B681A684023134007D1FB681B68B4
:10304000FA681268126840210A431A60FB68DB685C
:10305000002B47D1FB685B68002B03D0FB68DB8E3D
:10306000012B2AD1FB681A68FB681B6B1978D160A9
:103070005A1CFB681A63FB68DB8E013B9AB2FB6843
:10308000DA861AE0FA683B68101C0221002200F080
:10309000C5F8031C01D00323AEE0FB681A68FB6887
:1030A0001B6B1978D1605A1CFB681A63FB68DB8EB6
:1030B000013B9AB2FB68DA8600E0C046FB68DB8E13
:1030C000002BDFD1FB689A6A80239B019A4254D17E
:1030D000FB681B68FA6812681268802149010A437C
:1030E0001A604AE0FB685B68002B03D0FB68DB8E4C
:1030F000012B2ED1FB681B68FA68126B1288DA600C
:10310000FB681B6B9A1CFB681A63FB68DB8E013B38
:103110009AB2FB68DA861CE0FA683B68101C022150
:10312000002200F07BF8031C01D0032364E0FB685D
:103130001B68FA68126B1288DA60FB681B6B9A1CBA
:10314000FB681A63FB68DB8E013B9AB2FB68DA8688
:1031500000E0C046FB68DB8E002BDDD1FB689A6A7D
:1031600080239B019A4208D1FB681B68FA681268A9
:103170001268802149010A431A60FA683B68101CF2
:103180000221002200F04AF8031C0BD0FA685223F7
:10319000D35CDBB220221343D9B2FA685223D15454
:1031A000032329E0FA683B68101C8021012200F00B
:1031B00035F8031C0BD0FA685223D35CDBB2202213
:1031C0001343D9B2FA685223D154032314E0FB68A5
:1031D0009B68002B05D1FB681B68DB68FB681B68DC
:1031E0009B68FA6851230121D154FA6850230021C9
:1031F000D154002300E00223181CBD4604B080BD5A
:10320000FFDFFFFF80B582B000AF78607A6851239E
:10321000D35CDBB2181CBD4602B080BD80B586B061
:1032200000AFF860B9603B60FB1D1A7000237B6142
:10323000FDF7F0FE031C7B61FB1D1B78002B00D00B
:1032400087E03EE03B6801333BD03B68002B07D072
:10325000FDF7E0FE021C7B69D21A3B689A4230D926
:10326000FB681B68FA6812685268E0218A435A605A
:10327000FB681B68FA681268126840218A431A606A
:10328000FB689A6A80239B019A4210D1FB681B68F5
:10329000FA6812681168364A0A401A60FB681B68AF
:1032A000FA6812681268802189010A431A60FA6874
:1032B00051230121D154FA6850230021D154032312
:1032C00051E0FB681B689B68BA681A40BB689A4269
:1032D000B8D147E03B6801333CD03B68002B07D0B6
:1032E000FDF798FE021C7B69D21A3B689A4231D9DD
:1032F000FB681B68FA6812685268E0218A435A60CA
:10330000FB681B68FA681268126840218A431A60D9
:10331000FB689A6A80239B019A4210D1FB681B6864
:10332000FA6812681168124A0A401A60FB681B6842
:10333000FA6812681268802189010A431A60FA68E3
:1033400051230121D154FA6850230021D154032381
:1033500009E0C046FB681B689B68BA681A40BB68F6
:103360009A42B7D00023181CBD4606B080BDC046A7
:10337000FFDFFFFF80B582B000AF78607B68002B75
:1033800001D101233EE07A686923D35CDBB2002BD4
:1033900003D17B68181C01F0FDFA7A6869230221C9
:1033A000D1547B681B687A681268126801218A43CD
:1033B0001A607B68181C00F0B3F97B685B6A002B0D
:1033C00003D07B68181C00F0B3FB7B681B687A682D
:1033D000126851680D4A0A405A607B681B687A6817
:1033E000126892682A218A439A607B681B687A680F
:1033F0001268126801210A431A607B68181C00F0E9
:1034000059FB031C181CBD4602B080BDFFB7FFFF6F
:1034100080B586B000AFF860B9603B60BB1D1A8014
:10342000FA686923D35CDBB2012B06D0FA68692302
:10343000D35CDBB2222B00D088E0BB68002B03D02A
:10344000BB1D1B88002B01D1012380E0FA68682393
:10345000D35C012B01D1022379E0FA6868230121B2
:10346000D154FA686A230021D154FA686923D35CE5
:10347000DBB2222B04D1FA6869233221D15403E054
:10348000FA6869231221D154FA68B91D50230988BA
:10349000D152FA68B91D52230988D15231E0FA6835
:1034A0005223D35A013B99B2FA685223D152FA6897
:1034B0003B68101C8021002200F0E4FB031C01D0BB
:1034C000032344E0FB689A6880235B019A4210D191
:1034D000FB681B69002B0CD1BB687B61FB681B6818
:1034E0007A691288D205D20D9A62BB680233BB603A
:1034F00007E0FB681B68BA6812789A62BB68013300
:10350000BB60FA685223D35A002BC8D1FA683B68D3
:10351000101C4021002200F0B5FB031C01D0032346
:1035200015E0FA686923D35CDBB2322B04D1FA6868
:1035300069232221D15403E0FA6869230121D1547F
:10354000FA6868230021D154002300E00223181CEC
:10355000BD4606B080BDC04680B586B000AFF860FD
:10356000B9603B60BB1D1A80FA686923D35CDBB28B
:10357000012B06D0FA686923D35CDBB2122B00D092
:10358000C7E0BB68002B03D0BB1D1B88002B01D1FB
:103590000123BFE0FA686823D35C012B01D1022329
:1035A000B8E0FA6868230121D154FA686A2300213F
:1035B000D154FA686923D35CDBB2122B04D1FA68C8
:1035C00069233221D15403E0FA6869232221D154BE
:1035D000FA68B91D58230988D152FA68B91D5A23CF
:1035E0000988D152FB689A6880235B019A420DD109
:1035F000FB681B69002B04D1FA685C234749D15250
:1036000029E0FA685C23FF21D15224E0FB689B6823
:10361000002B0DD1FB681B69002B04D1FA685C23D9
:10362000FF21D15217E0FA685C237F21D15212E0CA
:10363000FB689A6880235B059A420CD1FB681B6982
:10364000002B04D1FA685C237F21D15203E0FA6891
:103650005C233F21D1523B1C1633F9685C228A5A05
:103660001A803CE0FA685A23D35A013B99B2FA68AF
:103670005A23D152FA683B68101C2021002200F026
:1036800001FB031C01D0032344E0FB689A688023FC
:103690005B019A4214D1FB681B69002B10D1BB68F7
:1036A0003B61FB681B685B6A9BB23A1C163212884E
:1036B00013409AB23B691A80BB680233BB600EE0CC
:1036C000FB681B685B6ADBB23A1C16321288D2B206
:1036D0001340DAB2BB681A70BB680133BB60FA688A
:1036E0005A23D35A002BBDD1FA686923D35CDBB2CD
:1036F000322B04D1FA6869231221D15403E0FA680D
:1037000069230121D154FA6868230021D154002390
:1037100000E00223181CBD4606B080BDFF0100007A
:1037200090B587B000AF78600023FB6000237B6119
:103730003B1C0A3300221A803B1C123300221A80E1
:103740007B689A687B681B691A437B685B691A43CC
:103750007B68DB691343FB607B681B687A681268CF
:103760001168C64A1140FA680A431A607B681B68F0
:103770007A6812685168C24A11407A68D2680A436E
:103780005A607B689A697B681B6A1343FB607B689D
:103790001B687A6812689168BA4A1140FA680A434D
:1037A0009A607B681A68B84B9A4217D1B74BDA6CAB
:1037B00003231340012B0BD004D3022B05D0032B82
:1037C00009D054E001237B6151E002237B614EE08C
:1037D00004237B614BE008237B6148E07B681A6827
:1037E000AB4B9A421AD1A94BDA6C0C231340042B31
:1037F0000ED002D8002B05D039E0082B05D00C2BB9
:1038000009D034E000237B6131E002237B612EE0AC
:1038100004237B612BE008237B6128E07B681A6826
:103820009C4B9A4223D1994BDA6CC0231B01134065
:103830008022D200934215D08022D200934202D837
:10384000002B09D013E080221201934207D0C0223E
:103850001201934209D00AE000237B6107E00223B2
:103860007B6104E004237B6101E008237B617B68CA
:103870001A68884B9A4242D17B69022B17D002D832
:10388000002B05D03AE0042B1CD0082B29D035E0C2
:103890007B681C68FEF752FC031C1A027B685B689D
:1038A000101C191C01F02CF9031CE360FFE07B687D
:1038B0001C687B685B687848191C01F021F9031CBF
:1038C000E360F4E07B681C68FEF79CFB031C1A02B3
:1038D0007B685B68101C191C01F012F9031CE36083
:1038E000E5E07B681C687B685B6880221004191C1B
:1038F00001F006F9031CE360C046D8E0D7E07B681E
:10390000DA6980231B029A426ED17B69082B4DD85D
:103910007B699A00614BD3181B689F46FEF70EFC2B
:10392000031C5A007B685B68101C191C01F0E8F846
:10393000031C1A1C3B1C12331A8038E0FEF716FCDD
:10394000031C5A007B685B68101C191C01F0D8F836
:10395000031C1A1C3B1C12331A8028E07B685B682E
:103960004F48191C01F0CCF8031C1A1C3B1C1233E5
:103970001A801CE07B681C68FEF744FB031C5A009D
:103980007B685B68101C191C01F0BAF8031CE3602B
:103990000DE07B685B6880225002191C01F0B0F8D2
:1039A000031C1A1C3B1C12331A8000E0C0463B1C4F
:1039B0000A333A1C123212880F218A431A803B1CA8
:1039C00012331A880F2313405B1099B23B1C0A3341
:1039D0003A1C0A3212880A431A807B681B683A1C18
:1039E0000A321288DA6062E07B69082B5ED87B6954
:1039F0009A002C4BD3181B689F467B681C68FEF707
:103A00009DFB021C7B685B68101C191C01F078F898
:103A1000031CE3604BE07B681C68FEF7A7FB021CFD
:103A20007B685B68101C191C01F06AF8031CE360DA
:103A30003DE07B681C687B685B681B48191C01F0D3
:103A40005FF8031CE36032E07B681C68FEF7DAFA7B
:103A5000021C7B685B68101C191C01F051F8031CE8
:103A6000E36024E07B681C687B685B68802210024E
:103A7000191C01F045F8031CE36018E0F369FFEF3F
:103A8000FFCFFFFFFFF4FFFF0038014000100240AE
:103A90000044004000480040000024F4F891000871
:103AA0000048E8011C9200080024F400C046BD460E
:103AB00007B090BD80B582B000AF78607B681B68AE
:103AC0001A68082313400CD0796880239A03174B97
:103AD000081C111C002200F0D5F8031C01D00323A0
:103AE0001FE07B681B681A68042313400CD07968B8
:103AF0008023DA030D4B081C111C002200F0C2F8D1
:103B0000031C01D003230CE07A6868230021D15400
:103B10007A686A230021D1547A6869230121D1543B
:103B20000023181CBD4602B080BDC046F055000001
:103B300080B582B000AF78607B685A6A0123134079
:103B40000AD07B681B687A6812685168444A114041
:103B50007A68926A0A435A607B685A6A0223134061
:103B60000AD07B681B687A68126851683D4A114028
:103B70007A68D26A0A435A607B685A6A04231340FF
:103B80000AD07B681B687A6812685168364A11400F
:103B90007A68126B0A435A607B685A6A082313409A
:103BA0000AD07B681B687A68126851682F4A1140F6
:103BB0007A68526B0A435A607B685A6A1023134032
:103BC0000AD07B681B687A6812689168284A11409D
:103BD0007A68926B0A439A607B685A6A2023134082
:103BE0000AD07B681B687A6812689168214A114084
:103BF0007A68D26B0A439A607B685A6A4023134002
:103C00001BD07B681B687A68126851681A4A114099
:103C10007A68126C0A435A607B681A6C80235B03D3
:103C20009A420AD17B681B687A6812685168134A05
:103C300011407A68526C0A435A607B685A6A802342
:103C400013400AD07B681B687A68126851680C4A76
:103C500011407A68926C0A435A60BD4602B080BD3A
:103C6000FFFFFDFFFFFFFEFFFFFFFBFFFF7FFFFFEB
:103C7000FFEFFFFFFFDFFFFFFFFFEFFFFFFF9FFFF4
:103C8000FFFFF7FF80B586B000AFF860B9603B601A
:103C9000FB1D1A7000237B61FDF7BCF9031C7B61DF
:103CA000FB1D1B78002B00D079E037E03B68013327
:103CB00034D03B68002B07D0FDF7ACF9021C7B69C0
:103CC000D21A3B689A4229D9FB681B68FA681268C5
:103CD000126880218A431A60FB681B68FA681268C0
:103CE000126820218A431A60FB681B68FA68126810
:103CF0001168324A0A401A60FB681B68FA68126849
:103D0000926801218A439A60FA6869230321D15499
:103D1000FA6868230021D15403234AE0FB681B683A
:103D2000DB69BA681A40BB689A42BFD140E03B6881
:103D3000013335D03B68002B07D0FDF76BF9021C2F
:103D40007B69D21A3B689A422AD9FB681B68FA68D9
:103D50001268126880218A431A60FB681B68FA683F
:103D60001268126820218A431A60FB681B68FA688F
:103D700012681168114A0A401A60FB681B68FA68E9
:103D80001268926801218A439A60FA6869230321C4
:103D9000D154FA6868230021D154032309E0C046B6
:103DA000FB681B68DB69BA681A40BB689A42BED0E0
:103DB0000023181CBD4606B080BDC046FFFEFFFFB5
:103DC00080B500AF00200121FCF700FDFCF716FFD5
:103DD000BD4680BD80B500AFFDF7D8F800F0D4F93E
:103DE000FFF7EEFF00F040FA00F09CFA002000F030
:103DF000CFFA021C684B9A4241D000F0EDFAFF2046
:103E0000FCF73EFF654B181CFCF72EFF644B0120AE
:103E10000B211A1C0323FCF789FF624B01200621AA
:103E20001A1C0323FCF782FF5F4B012001211A1C9F
:103E30000323FCF77BFFFDF72BF85C4A5C4B101C5F
:103E4000191C00F0EFFA594A594B101C191C00F0CC
:103E500031FA584B181C00F0DDFB564B1B68012053
:103E6000191C00F0A7FA544B1B680220191C00F023
:103E7000A1FA494B0020191C00F09CFA69E04F4B55
:103E80005A680123134042D0484A494B101C191C60
:103E900000F030FA464B1B78172B2ED1444B5B7841
:103EA0003B2B2AD1424B9B783B2B26D1012000F0A3
:103EB0006FFA021C3F4B1A603E4B1B68002B04D06C
:103EC0003C4B1B685A1E3B4B1A603A4B1B68012047
:103ED000191C00F06FFA022000F05AFA021C364B4F
:103EE0001A60354B1B685A1C334B1A60324B1B68E7
:103EF0000220191C00F05EFA2BE02F4B00221A6002
:103F00002D4B1B680220191C00F054FA21E000F030
:103F100059F82B4B181CFDF787F800F05DFA00F0FC
:103F200073FC031C15D0214A214B101C191C00F0F6
:103F300079FA1E4A1E4B101C191C00F0BBF91D4BD0
:103F4000181C00F067FB1B4B1B680120191C00F0BC
:103F500031FA012000F01CFA021C164B1A600220F4
:103F600000F016FA021C144B1A6000F0B1F800F0D1
:103F700067F980235B00181CFDF746FB0F4B0F4AC7
:103F8000126804210A431A6080235B00181CFDF7A5
:103F90002BFBFDF749FBFEE75A3C00002C000020FC
:103FA000409200084C9200085892000860010020DE
:103FB00064010020F8000020FC0000200070004098
:103FC00088130000F0B595B004AF3B1C0C33002201
:103FD0001A60043300221A60043300221A6004338A
:103FE00000221A60043300221A60043300221A608F
:103FF000043300221A60043300221A6004330022C2
:104000001A60043300221A60043300221A60043359
:1040100000221A60043300221A800233254A264BFC
:10402000101C191C00F066F9224B9B781A1C214BBE
:104030005B787B601F49C9788C461F4909780E1C44
:104040001D4949780D1C1C4989780C1C381C0C3002
:104050001A49634600930196029503947B6800F029
:104060007BFEFF20FCF70CFE154B181CFCF7FCFD3B
:10407000144B02200E211A1C0323FCF757FE3B1C95
:104080000C3302200A211A1C0323FCF74FFE0E4BAF
:10409000022005211A1C0323FCF748FE0B4B0220CB
:1040A00001211A1C0323FCF741FEFCF7F1FEBD467B
:1040B00011B0F0BD6001002064010020689200088A
:1040C0003C000020889200089C920008B4920008EE
:1040D00080B58AB000AF3B1C183300221A6004334D
:1040E00000221A60043300221A60043300221A806E
:1040F000023300221A7001333B1D00221A60043380
:1041000000221A60043300221A60043300221A606D
:10411000043300221A600433164B1B68391C183113
:10412000154A081C111C1A1C00F016FE134B1B68C4
:10413000391D134A081C111C1A1C00F00DFEFF202B
:10414000FCF79EFD0F4B181CFCF78EFD3B1C183333
:1041500001200A211A1C0323FCF7E8FD3B1D002067
:1041600002211A1C0323FCF7E1FDFCF791FEBD467A
:104170000AB080BDF8000020CC920008FC000020AE
:10418000DC9200083400002080B594B000AF294BC9
:10419000284A926B802149050A439A63264B264A96
:1041A0001168264A0A40802109010A431A603B1D12
:1041B00002221A603B1D00225A603B1D0122DA6078
:1041C0003B1D02229A623B1D0022DA623B1D8022C7
:1041D000D2021A633B1D8022D2035A633B1D102278
:1041E0001A613B1D181CFDF751FA031C01D000F0A9
:1041F0002FF83B1C3C330F221A603B1C3C3303223C
:104200005A603B1C3C3300229A603B1C3C3300222A
:10421000DA603B1C3C3300221A613B1C3C33181C07
:104220000121FDF743FD031C01D000F011F8BD464C
:1042300014B080BD0010024000700040FFE7FFFF97
:1042400080B500AFFDF714FAFDF704FABD4680BD56
:1042500080B500AF0120FCF74DFA0120FCF79AFA77
:104260006420FCF7E1FEF8E780B500AF0F4B104A81
:104270001A600E4B00225A600C4B7F229A600B4B47
:10428000FF22DA60094B00221A61084B00229A6172
:10429000064B0022DA61054B181CFEF77DF8031C63
:1042A00001D0FFF7D5FFBD4680BDC0467801002094
:1042B0000028004080B582B000AF786039600C4AB9
:1042C0007B68101C191C0022FEF70CFA031C01D09D
:1042D000FFF7BEFF064A3B68101C191C0022FEF7C0
:1042E000DBF8031C01D0FFF7B3FFBD4602B080BD71
:1042F0007801002080B582B000AF78603960084A4C
:104300003B68101C191C0022FEF794F9044A7B68D4
:10431000101C191C0022FEF7A3FABD4602B080BD96
:104320007801002080B58AB000AF3B1C802252008B
:104330005A623A1C20230321D1543B1C8022D2050F
:10434000DA613B1C802212065A613B1CF0221205E6
:104350009A613B1C00221A723B1C17221A703B1CEC
:104360003B225A703B1C3B229A703B1C38225A60FD
:10437000064A3B1C101C191C0022FEF7C3FA031C42
:1043800001D0FFF765FFBD460AB080BD780100206F
:1043900080B582B000AF7860054A7B68101C191C9C
:1043A000FEF720FD031C181CBD4602B080BDC046B0
:1043B0007801002080B582B000AF7860396005498F
:1043C0007A683B68081C111C1A1CFEF7F3FCBD46FA
:1043D00002B080BD7801002080B500AF0F4B104ABD
:1043E0001A600E4B962292015A600C4B00229A6082
:1043F0000A4B0022DA60094B00221A61074B0022A7
:104400009A61064B0C225A61044B181CFEF7B2FF4E
:10441000031C01D0FFF71CFFBD4680BD9C0100209E
:104420000038014080B588B000AF786039606E4BCD
:10443000FB616D4BBB616C4B7B616B4B3B616A4BB2
:10444000FB60694BBB60694B181C00F0F7FB684BC5
:10445000181C00F0F3FB674B181C00F073FC06E01F
:1044600002200021632200F027F9031CFB61FA6996
:104470005D4B9A42F4D0604AFB69101C191C00F095
:10448000DDFB5E4B181C00F0D9FB5A4B181C00F0EA
:1044900059FC06E0022001210C2200F00DF9031C5A
:1044A000BB61BA69504B9A42F4D0534ABB69101CA5
:1044B000191C00F0C3FB524B181C00F0BFFB4D4B06
:1044C000181C00F03FFC06E0022001211F2200F032
:1044D000F3F8031C7B617A69434B9A42F4D0464A55
:1044E0007B69101C191C00F0A9FB424B181C00F042
:1044F00029FCFB69DAB27B68DA70BB69DAB27B68E7
:104500005A707B69DAB27B689A703E4B181C00F0D7
:1045100095FB3D4B181C00F091FB364B181C00F02E
:1045200011FC06E002200021172200F0C5F8031C50
:104530003B613A692C4B9A42F4D02F4A3B69101CDC
:10454000191C00F07BFB314B181C00F077FB294B4A
:10455000181C00F0F7FB06E0022000213B2200F0CF
:10456000ABF8031CFB60FA681F4B9A42F4D0224A56
:10457000FB68101C191C00F061FB254B181C00F097
:104580005DFB1C4B181C00F0DDFB06E00220002147
:104590003B2200F091F8031CBB60BA68124B9A42B0
:1045A000F4D0154ABB68101C191C00F047FB114BD6
:1045B000181C00F0C7FB3B69DAB23B681A70FB6855
:1045C000DAB23B685A70BB68DAB23B689A703B68F3
:1045D00000221A723B680022DA603B6800221A61EE
:1045E000BD4608B080BDC046FF0F0000EC92000839
:1045F0003093000850930008549300085C9300081F
:104600007C93000898930008DC930008F49300085A
:104610000C94000880B584B000AF7860154BFB6047
:10462000154B181C00F00AFB144B181C00F006FB7D
:10463000134B181C00F086FB07E0124B03200021EF
:104640001A1C00F039F8031CFB60FA68094B9A4207
:10465000F3D00D4AFB68101C191C00F0EFFA084B50
:10466000181C00F06FFB7B68FA681A60BD4604B046
:1046700080BDC046FF0F0000249400086894000825
:1046800050930008E70300005493000880B584B0FD
:1046900000AFF860B9607A607B689AB20448B96884
:1046A000044BFEF7B5FE7B68181CBD4604B080BD08
:1046B0009C0100201027000080B586B000AFF86094
:1046C000B9607A6000237B613A1C1032464B111CA2
:1046D0001A1C0323081C111C1A1C00F09DFA29E067
:1046E000C0463A1C10327B69D2184049404B081C26
:1046F000111C0122FEF730FF031CF2D17B6901334C
:104700007B617B69013B3A1C1032D35C2F2B06D9AD
:104710007B69013B3A1C1032D35C392B0AD9354BEB
:10472000181C00F08BFA344B181C00F00BFB7B6953
:10473000013B7B617A69FB689A42D1D3FB68012B0C
:1047400005D13B1C10331B78303B7B6130E0FB68AC
:10475000022B11D13B1C10335B78191C30393B1CE8
:1047600010331B781A1C131C9B009B185B00E13B49
:10477000FF3BCB187B611BE0FB68032B18D13B1C74
:1047800010339B78191C30393B1C10335B781A1C92
:10479000131C9B009B185B00E13BFF3BCA183B1CB2
:1047A00010331B7864214B4314495B18D3187B6189
:1047B0007A69BB689A4203D37A697B689A420DD9B9
:1047C0000F49BA687B68081C111C1A1C00F036FAE5
:1047D000094B181C00F0B6FA0A4B00E07B69181C64
:1047E000BD4606B080BDC046FC9400089C01002078
:1047F00040420F00A09400085093000840EDFFFFD6
:10480000CC940008FF0F000090B583B000AFBB1D33
:10481000FF221A70134B181C00F010FA124B181CD0
:1048200000F090FA00E0C046FC1D1049BA1D104B84
:10483000081C111C0122FEF78FFE031C2370FB1DB8
:104840001B78002B03D0FB1D1B78032BEBD1BB1D6A
:104850001B780D2B01D1012300E00023181CBD465D
:1048600003B090BD00950008509300089C01002003
:10487000881300000649074A074B9B1A03DD043BD7
:10488000C858D050FBDC0548804705480047000069
:10489000EC95000800000020D0000020894A0008A4
:1048A000210100081549164A002301E00B6004317C
:1048B0009142FBD3FFF78EFAFEE7FEE7FEE7FEE745
:1048C000FEE7FEE7FEE7FEE7FEE7FEE7FEE7FEE7C0
:1048D000FEE7FEE7FEE7FEE7FEE7FEE7FEE7FEE7B0
:1048E000FEE7FEE7FEE7FEE7FEE7FEE7FEE7FEE7A0
:1048F000FEE7FEE7FEE7FEE7FEE7FEE7D00000206A
:104900000C02002080B500AFBD4680BD80B598B0D8
:1049100000AF78603B1C28330C221A603B1C283304
:1049200000229A623B1C2833802252009A603B1C72
:10493000283300225A613B1C2833181CFCF7A6FEC2
:10494000031C01D0FFF784FC3B1C083320221A60B3
:104950003B1C0833802252025A613B1C0833181C4E
:10496000FDF71CFC031C01D0FFF772FC084B084A42
:10497000126D8021C9020A431A650220002100221B
:10498000FCF712FC0220FCF725FCBD4618B080BDE8
:104990000010024080B588B000AF7860234B234AF6
:1049A000D26A01210A43DA62204B204AD26A0121ED
:1049B0000A43DA621D4B1D4A526B8021C9010A432A
:1049C0005A633B1C0C33802292001A603B1C0C3350
:1049D00002225A603B1C0C3300229A603B1C0C33B1
:1049E0000222DA603B1C0C3304221A61A023DA0590
:1049F0003B1C0C33101C191CFCF70AFC3B1C0C3331
:104A00008022D2001A603B1C0C3301229A603B1CAE
:104A10000C3304221A61A023DA053B1C0C33101C52
:104A2000191CFCF7F5FBBD4608B080BD0010024024
:104A300080B500AFBD4680BD80B500AFFEE7C04683
:104A400080B500AFBD4680BD80B500AFBD4680BD1E
:104A500080B500AFBD4680BD80B500AFFCF7CEFA93
:104A6000BD4680BD80B500AF024B181CFEF7B8F8FC
:104A7000BD4680BD7801002080B500AF0120FCF765
:104A80008FFDBD4680BDC04680B500AF164B164AAF
:104A90001268802149000A431A60134B124AD168F8
:104AA000124A0A40DA60104B0F4A1168104A0A4055
:104AB0001A600D4B0C4A926801218A439A600A4B96
:104AC000094A11680B4A0A401A60074B064AD16826
:104AD000094A0A40DA60044B00221A61074B80221F
:104AE00012059A60BD4680BD001002400C40FF8850
:104AF000F6FFF6FEFFFFFBFFFFFF02FF00ED00E009
:104B0000002934D00123002210B488422CD3012480
:104B10002407A14204D2814202D209011B01F8E715
:104B2000E400A14204D2814202D249005B00F8E7CE
:104B3000884201D3401A1A434C08A04202D3001BFA
:104B40005C0822438C08A04202D3001B9C0822432D
:104B5000CC08A04202D3001BDC082243002803D06B
:104B60001B0901D00909E3E7101C10BC704700289D
:104B700001D00020C04307B4024802A140180290AF
:104B800003BDC046190000000029F0D003B5FFF7AF
:104B9000B9FF0EBC4243891A1847C0467047C04649
:104BA000084B10B5041C002B02D0002100E000BF10
:104BB000054B1868836A002B00D09847201C01F031
:104BC000BDF9C046000000004895000870B50E4BC6
:104BD0000E4D0024ED1AAD101E1C03E0A300F35887
:104BE00098470134AC42F9D101F0AAF9084B094DBC
:104BF0000024ED1AAD101E1C03E0A300F3589847E3
:104C00000134AC42F9D170BDC8000020C8000020BA
:104C1000C8000020CC00002010B5002302E0CC5CCE
:104C2000C45401339342FAD110BD00B58218031C5D
:104C300001E0197001339342FBD100BD0FB40B4B5F
:104C400013B51C68002C05D0A369002B02D1201CD1
:104C500000F096FE05ABA168201C049A019300F0B9
:104C60001DFA16BC08BC04B01847C046C40000209A
:104C700070B5051C0E1C002804D08269002A01D1E1
:104C800000F07EFEAC68A3891A0702D52369002BC9
:104C90002BD1281C211C00F0F9FC002825D0012074
:104CA00040424DE0002B16DAA26993420ADB2268EB
:104CB00033781370226811780A2904D00132002356
:104CC00022600FE03178221C281C00F089FC431C74
:104CD0005A42534106E03378226813702368013347
:104CE000236001E0002BDAD10136A3683278013B62
:104CF000A360002AD6D1002B18DAA26993420CDBFC
:104D000022680A23137022681178994203D0013275
:104D10000023226011E0281C01E0281C0A21221C2B
:104D200000F05EFC431C5A42534106E022680A230D
:104D3000137023680133236001E0002BAFD10A20F8
:104D400070BD000008B5034B011C1868FFF790FF09
:104D500008BDC046C40000200EB400B59CB01DAB19
:104D600004CB822202A992008A810A4A02908A60B8
:104D70004A6101225242CA81074A086110681D9A9D
:104D8000019300F06FF8029A002313701CB008BC66
:104D900003B01847FFFFFF7FC4000020F0B58D6807
:104DA00085B0071C0C1C03920193AB4242D39023A5
:104DB0008A89DB001A423AD0636909695E00F318F8
:104DC0002068DE0F401AF31802905E10031C019851
:104DD00001331B189E4200D21E1C381C530511D5EE
:104DE000311C00F005FF051C002800D114E0029AD8
:104DF0002169FFF711FFA289194B13408022134349
:104E0000A3810CE0321C00F04BFF051C002806D1EA
:104E1000381C216900F09EFE0C233B6018E00298CC
:104E200025612D1825606661019D361AA660019ADC
:104E3000AA4200D2019D2A1C2068039900F072FE4C
:104E4000A0682268431B5519A3602560002005E077
:104E5000A389402213430120A381404205B0F0BD45
:104E60007FFBFFFFF0B59FB005938B89061C0D1CDF
:104E7000141C18060FD5096900290CD1301C4021DB
:104E800000F0B6FE28602861002802D10C233360B0
:104E9000CEE040236B61002206AB0B9220225A76B3
:104EA00030229A76271C00E001373B78252B01D071
:104EB000002BF9D13A1B03920CD0301C291C221C68
:104EC000039BFFF76BFF013000D1ACE00B98039917
:104ED00043180B933B78002B00D1A4E001225242EF
:104EE00007926A4600235B327C1C06930993089361
:104EF00013701C9306E0C71B069A0120B8401043AC
:104F0000069001344C4F2178381C052200F0FEFD3C
:104F10000028F0D1069BD80603D56A4620215B32D3
:104F20001170190703D56A462B215B321170227864
:104F30002A2A02D0099B0A2111E0059A111D126844
:104F40000591002A01DB099204E0524209920222F3
:104F500013430693013407E04B4301349B18227836
:104F6000303A092AF8D9099323782E2B19D163787E
:104F70002A2B0AD1059B02341A1D1B680592002BAF
:104F800000DB0DE001235B420AE0013400230A212B
:104F900002E04B4301349B182278303A092AF8D9B1
:104FA0000793264F2178381C032200F0AFFD00281C
:104FB00006D0C71B069A4020B84010430690013423
:104FC000217806AF1E4806223976013400F09EFD96
:104FD000002817D01B4B002B0BD13968059A0723EB
:104FE000C80501D5D21800E007329A43083205926D
:104FF00014E005AB0093301C391C2A1C124B00E056
:1050000000BF07E005AB0093301C391C2A1C0E4B77
:1050100000F0C2F904900499013104D00B9A04986D
:1050200013180B933EE7AB89590601D40B9801E0A6
:10503000012040421FB0F0BD4C9500085295000879
:1050400056950008000000009D4D0008936810B5BB
:10505000013B9360002B05DA9469A34208DBCBB2D5
:105060000A2B05D01368C8B219700133136001E030
:1050700000F0B6FA10BDF8B5061C0F1C141CD518AC
:1050800007E02178301C3A1CFFF7E0FF0134431C95
:1050900002D0AC42F5D10020F8BD0000F0B59FB0C1
:1050A000061C0D1C141C0593002805D080690028DF
:1050B00002D1301C00F064FC754B9D4201D1756833
:1050C00008E0744B9D4201D1B56803E0724B9D42EC
:1050D00000D1F568AB8919070AD52A69002A07D0DB
:1050E000002206AB0B9220225A7630229A7608E0F4
:1050F000301C291C00F0CAFA0028F1D001204042DF
:10510000C4E0271C00E001373B78252B01D0002BA1
:10511000F9D13B1B03930BD0301C291C221CFFF739
:10512000AAFF013000D1ACE00B98039943180B9310
:105130003B78002B00D1A4E00122524207926A463C
:1051400000235B327C1C06930993089313701C9315
:1051500006E0C71B069A0120B840104306900134B0
:105160004E4F2178381C052200F0D0FC0028F0D1E9
:10517000069BD80603D56A4620215B3211701907B9
:1051800003D56A462B215B32117022782A2A02D07D
:10519000099B0A2111E0059A111D12680591002A48
:1051A00001DB099204E05242099202221343069362
:1051B000013407E04B4301349B182278303A092A26
:1051C000F8D9099323782E2B19D163782A2B0AD189
:1051D000059B02341A1D1B680592002B00DB0DE0B5
:1051E00001235B420AE0013400230A2102E04B4321
:1051F00001349B182278303A092AF8D90793284FAE
:105200002178381C032200F081FC002806D0C71B3F
:10521000069A4020B840104306900134217806AF2A
:10522000204806223976013400F070FC002817D09F
:105230001D4B002B0BD13968059A0723C80501D5F2
:10524000D21800E007329A430832059214E005AB09
:105250000093301C391C2A1C144B00E000BF07E0EF
:1052600005AB0093301C391C2A1C104B00F094F83D
:1052700004900499013104D00B9A049813180B93ED
:105280003FE7AB89590600D538E70B981FB0F0BD52
:1052900080950008A0950008C09500084C9500086E
:1052A000529500085695000800000000775000084D
:1052B000F7B5151C01930A698B68061C0C1C9342F8
:1052C00000DA131C221C2B6043321278002A01D012
:1052D00001332B602068800602D52B6802332B60D7
:1052E000216806270F4016D0231C43331B785A1E13
:1052F00093412268920616D420E0221C1932301CF9
:1053000001990123089FB847013002D10120404292
:1053100040E0009F01370097E0682968009F431A2A
:105320009F42EADBE0E7E218111C40313020C870F0
:10533000211C453109784132D1700233221C43329D
:10534000301C0199089FB8470130DFD02068062142
:105350002B68E26801400025042903D1D51AEB43EC
:10536000DB171D40A26823699A4201DDD31AED18AC
:1053700000270AE0221C1A32301C01990123089FE1
:10538000B8470130C2D0009F01370097009FAF425D
:10539000F0DB0020FEBD0000F0B50D1C8BB04335E6
:1053A00007930590069204950A7E0C1C109B6E2AAA
:1053B00000D1B1E00FD8632A1DD006D8002A00D151
:1053C000BBE0582A00D0CBE04AE0642A1BD0692A0F
:1053D00000D0C5E017E0732A00D1B2E005D86F2AEB
:1053E00029D0702A00D0BBE03EE0752A23D0782A6D
:1053F00000D0B5E03CE01A680E1C111D196013685E
:1054000042363370AFE021681A680E0600D506E018
:10541000480604D5111D19600021555E02E0111DDA
:10542000196015686C4B002D47DA221C43322D2180
:105430006D42117041E021681A680D0600D505E043
:105440004E0603D5111D1960158802E0111D196063
:105450001568614B227E039308276F2A28D026E027
:1054600045310A705C4D08E00E68202232430A6024
:10547000221C45327821594D11701A682168101D7F
:10548000039518600E0600D503E0480601D515887F
:1054900000E01568CA0702D52023194321601027B0
:1054A000002D05D1266820239E43266000E00A27B0
:1054B000231C433300221A7001E003930A27636818
:1054C000A360002B03DB2068042290432060002DA2
:1054D00002D1049E002B0FD0049E281C391CFFF71C
:1054E00053FB039A013E535C281C3370391CFFF7B1
:1054F00007FB051C0028F0D1082F09D12368DB0722
:1055000006D565682069854202DC013E3023337090
:10551000049DAB1B23612CE008681A6849690606E4
:1055200000D506E0450604D5101D186013681980E3
:1055300003E0101D18601368196000232361049EA6
:1055400017E01A68111D19601668301C00F02EFC57
:1055500063682061984200D923612069606004E09B
:10556000261C4236327001232361231C4333002260
:105570001A70079D05980095211C09AA069BFFF744
:1055800097FE013002D10120404222E0321C0598F2
:1055900006992369079EB0470130F4D02068800740
:1055A00010D4099BE068984213DA181C11E0221C01
:1055B0001932059806990123079EB0470130E2D0C1
:1055C000013500E00025E0680999431A9D42EEDBB1
:1055D000E7E70BB0F0BDC0465D9500086E9500088A
:1055E00070B5051C0E1C141C002804D08269002A0A
:1055F00001D100F0C5F9224B9C4201D16C6808E052
:10560000204B9C4201D1AC6803E01F4B9C4200D16F
:10561000EC68A369A360A3891A070AD52369002B44
:1056200007D022682369F6B2D01A626990420FDB74
:1056300008E0281C211C00F029F80028F1D00126E0
:1056400076421BE0281C211C00F01AF90028F6D134
:10565000A3680130013BA36023681E7001332360FF
:105660006369984204D0A389DA0707D50A2E05D1C9
:10567000281C211C00F004F90028E0D1301C70BD6A
:1056800080950008A0950008C0950008324B70B5C1
:105690001D68061C0C1C002D05D0A969002902D12B
:1056A000281C00F06DF92D4B9C4201D16C6808E07C
:1056B0002B4B9C4201D1AC6803E02A4B9C4200D1A9
:1056C000EC68A3891A071ED4D90602D409223260D5
:1056D0003CE05A0713D5616B002908D0231C4433E2
:1056E000994202D0301C00F035FA00236363A3898D
:1056F00024229343A3810023636023692360A38949
:1057000008221343A381216900290BD1A389A02278
:1057100092001A4080239B009A4203D0301C211C27
:1057200000F0A0F9A38901221A4005D06169002286
:10573000A2604A42A26103E0990700D46269A260B4
:1057400022690020824206D1190604D54022134363
:105750000120A381404270BDC40000208095000854
:10576000A0950008C0950008F7B58B89051C0C1C96
:1057700019075FD46268002A03DC276C002F00DC65
:105780001AE0E76A002F17D000222E682A608022D4
:1057900052011A4001D0626D15E0281C216A0123D4
:1057A000B847021C411C0ED12B68002B0BD0162BC6
:1057B00001D01D2B02D12E6000205FE0A389402183
:1057C0000B43A3815AE0A3895F0706D56168636B29
:1057D000521A002B01D0276CD21B281C216A0023EF
:1057E000E76AB847A289411C06D12B68002B03D079
:1057F0001D2B01D0162B19D1002363602369236070
:10580000D70405D5411C02D12A68002A00D1606561
:10581000616B2E600029CFD0231C4433994202D003
:10582000281C00F097F90020606327E040231A430A
:10583000A28123E02669002EBED027680022BF1B6C
:1058400001972660990700D16269A26012E0281CC6
:10585000216A321C019BA76AB847002806DCA3898D
:10586000402213430120A381404207E0019F3618E4
:105870003F1A0197019F002FE9DC9DE7FEBD000064
:105880000A6938B5051C0C1C002A01D100201CE057
:10589000002804D08369002B01D100F071F80B4B74
:1058A0009C4201D16C6808E0094B9C4201D1AC6874
:1058B00003E0084B9C4200D1EC680C22A35E002B55
:1058C000E4D0281C211CFFF74FFF38BD809500084D
:1058D000A0950008C0950008F8B5041C071C4834C2
:1058E00011E0A56866680BE0AB89012B07D90E2291
:1058F000AB5E013303D0381C291CFFF7C1FF6835AC
:10590000013EF1D52468002CEBD1F8BD002310B581
:10591000041C03604360836081814366C28103612C
:1059200043618361191C08225C30FFF77EF9054B47
:1059300024626362044BA362044BE362044B23635F
:1059400010BDC046155D00083D5D0008755D00088E
:10595000A15D000870B50D1C6826013971437431D2
:1059600000F046F90021041C884207D00160456020
:10597000321C0C30A0606A43FFF757F9201C70BD41
:10598000836913B5041C002B27D18364C3640365AA
:10599000124B134A1B688262984201D10123836132
:1059A000201C00F01FF86060201C00F01BF8A060B5
:1059B000201C00F017F80421E06000226068FFF767
:1059C000A5FFA06809210122FFF7A0FFE0681221CE
:1059D0000222FFF79BFF0123A36113BD4895000836
:1059E000D9580008F8B51E4B071C1E68B269002A7A
:1059F00002D1301CFFF7C4FF4836B468736804E076
:105A00000C22A55E002D12D06834013BF8D5336816
:105A1000002B01D03668F0E7381C0421FFF79AFF0D
:105A200030600028F6D10C233B60041C15E00123F4
:105A30005B42E381201C0123A38165662560A5608C
:105A4000656025616561A5615C30291C0822FFF74E
:105A5000ECF86563A563A564E564201CF8BDC04649
:105A600048950008F0B58B8991B0051C0C1C9A076D
:105A700000D527E00E23C95E002904DAA789802318
:105A80001F4006D110E001AA00F0BEF9002803DA99
:105A9000F4E70027402609E0029BF0273F02194A5D
:105AA0001F40BF187B425F4180267600281C311CB6
:105AB00000F09EF800280CD1A3899A051FD4022279
:105AC0001343A381231C47332360236101236361B4
:105AD00015E00D4B8022AB62A38920601343A381A4
